:1000000000308A003D2D00000A108A100A11820774
:1000100028340C34013406340A108A100A1182077D
:1000200054343D34253431342E3431346634433441
:10003000203454343D34253431342E343134663454
:10004000463420340A3454343D34253431342E348B
:10005000313466344B3400340A108A100A11820796
:100060000A340D342034743465346D3470343A34C9
:10007000253466346334003443308400831300082D
:10008000031950280130F800F701F70B4528F80B49
:1000900044284A30F700F70B4B284E28800B4228A3
:1000A00000344A0EF039F7000F3008057704880055
:1000B000000008145B28081000348810F030831604
:1000C0008800831208150000081400000808080EB4
:1000D0000F39CA0008100000081400000808080EB4
:1000E0000F39C900081000308316880083124A0EA9
:1000F000F700F030F70577084904F8007808C900E0
:10010000C91B5E28471C8810471888140000081176
:1001100000000810480EC9000F30C9054908CA0080
:10012000512048080F39C900CA005120003400305E
:100130008316880083128810081108100F30C3003E
:100140003C200130B3003308033C031CAF280330CC
:10015000CA0051200530C3003C20B30AA328023056
:10016000CA005120B3013308033C031CC0283308E4
:100170000420B400C7013408C8005D20B30AB328C6
:100180008A110A12652D440BC628C9284030C500C3
:10019000CA28C50101304302C50745088038C6009A
:1001A000C7014608C8005D20003442080C3A031914
:1001B000E028063A0319E828023A0319EE28F32842
:1001C000C7010130C8005D200230C3003C20F9287F
:1001D0000130C3000230C400C320F928C701103029
:1001E000C8005D20F9280130C7004208C8005D2022
:1001F000F9280034420803196A29CA00460803197D
:100200006A29CA0703180B297F30CA02031C6A290E
:1002100003196A290F298130CA0703186A294A0875
:10022000F700F801F901FA014308CE00CE1744089F
:10023000CD004508CC001830CA00CB014C1C382931
:100240004908FA07031C2A29F90A031D2A29F80A72
:100250000319CB174808F907031C3129F80A0319B9
:10026000CB174708C400C4174408F8070318CB1776
:10027000CB0DF80CF90CFA0CCE0CCD0CCC0C0310F9
:10028000CA0B1D290130F70703186A29F81B4F29EB
:10029000CE0DFA0DF90DF80DF70303196A29CE1FDB
:1002A0006029FA0A031D6029F90A031D6029F80A6A
:1002B000031D6029F80CF90CFA0CF70A03196A29D6
:1002C0004308CB004708CB06CB1F6829F8176E29D7
:1002D000F8136E29F701F801F901FA010034420818
:1002E000B63CC200FA014308C600C3170310C30C92
:1002F000C40CC50CFA0CF90CF80CF70CC20B7629DF
:10030000C61F8D29F709F809F909FA09F70A03192F
:10031000F80A0319F90A0319FA0A0034F701F80177
:10032000F901FA01CA01CB01CC01CD014908480409
:10033000470446040319CC292030CE000310C20D17
:10034000C30DC40DC50DCA0DCB0DCC0DCD0D490887
:100350004D02031DB52948084C02031DB529470865
:100360004B02031DB52946084A02031CC62946084C
:10037000CA024708031C470FCB024808031C480F5A
:10038000CC024908031C490FCD020314F70DF80DE8
:10039000F90DFA0DCE0B9E294A30840083130034E8
:1003A0000408BA003908BC000319EF293808C50051
:1003B0003708C4003608C3003508C200C901C801A7
:1003C0002030C7008230C600FA207A08B8007908C9
:1003D000B7007808B6007708B500BC0BD6293808F6
:1003E000C5003708C4003608C3003508C2006F21B5
:1003F0007A08B8007908B7007808B6007708B50021
:10040000B81F0F2ABA03BA16B509B609B709B80951
:10041000B50A0319B60A0319B70A0319B80A3B301B
:10042000C1009A30C000CA30BF00BE010A30BC0013
:1004300039080319BA0A3808C5003708C400360855
:10044000C3003508C2004108C9004008C8003F0881
:10045000C7003E08C6008E210008B500840A0008C7
:10046000B600840A0008B700840A0008B800FD300E
:100470008407F708031D4F2A390A3C0203194F2A43
:100480003A080319512A0F393C020319492A031863
:10049000812ABA1B812A3A1B512A20307D2A20301A
:1004A000BA05BA1E5F2ABA123908031DBA037708C3
:1004B000BA002D30C200D5203A08F700BA01390839
:1004C0003C02031D6D2A7708BA002E30C200D520E9
:1004D0003A08F7002030BA0500303030BA1E7D2AC5
:1004E000BA123908031DBA037708BA002D30C200CA
:1004F000D5203A08F700BA013030F7077708C20074
:10050000D5204108C5004008C4003F08C3003E088C
:10051000C200C901C801C7010A30C6008E217A088D
:10052000C1007908C0007808BF007708BE00BC0B86
:100530001B2A00340408B9003808BB000319B92A83
:100540003708C5003608C4003508C3003408C200A7
:10055000C901C8012030C7008230C600FA207A08DD
:10056000B7007908B6007808B5007708B400BB0B6F
:10057000A02A3708C5003608C4003508C30034086F
:10058000C2006F217A08B7007908B6007808B50074
:100590007708B400B71FD92AB903B916B409B50949
:1005A000B609B709B40A0319B50A0319B60A03193B
:1005B000B70A3B30C0009A30BF00CA30BE00BD0150
:1005C0000A30BB0038080319B90A3708C5003608D5
:1005D000C4003508C3003408C2004008C9003F0801
:1005E000C8003E08C7003D08C6008E210008B400C0
:1005F000840A0008B500840A0008B600840A0008CE
:10060000B700FD308407F708031D192B380A3B0299
:100610000319192B390803191B2B0F393B02031936
:10062000132B03184F2BB91B4F2B391B1B2B2030BF
:100630004A2B2030B905B91E2A2BB9123808031DE0
:10064000B9037708B9002D300C1E242B9900390806
:10065000F700B90138083B02031D392B7708B900B0
:100660002E300C1E312B99003908F7002030B905C7
:1006700000303030B91E4A2BB9123808031DB903B7
:100680007708B9002D300C1E432B99003908F7006C
:10069000B9013030F70777080C1E4C2B9900400841
:1006A000C5003F08C4003E08C3003D08C200C901A0
:1006B000C801C7010A30C6008E217A08C000790837
:1006C000BF007808BE007708BD00BB0BE52A8A1181
:1006D0000A12D62B0130C3003C200130C300C400F5
:1006E000C3205430C200D5203D30C200D52089300F
:1006F00084002808B8002708B7002608B600250897
:10070000B5000130B900D0210730B30033080C2008
:10071000B30AF700C200D5200B303302031D862B2D
:10072000893084002C08B8002B08B7002A08B600CE
:100730002908B5000130B900D0211030B4003408C8
:100740000C20B40AF700C200D52015303402031D76
:100750009F2B893084003008B8002F08B7002E087E
:10076000B6002D08B5000130B900D0214B30C200D1
:10077000D5200130C3003C20B30133082C20B30A3C
:10078000F70077080C1EC22B990008303302031DB6
:10079000BD2B893084002808B7002708B60026083A
:1007A000B5002508B4000230B8009A2A63300C1E48
:1007B000D72B99008A110A126F2D8E30F70034085A
:1007C000F8003308F900FA01F808031DF12B790845
:1007D000F800F9010830F702F808031DF12BF701C2
:1007E000F92B0310F81BF82BF90DF80DF703F12B7B
:1007F000F8138A110A12842D80308318BC06C101B7
:10080000C2013808C0003C08C00637080319EC2CA8
:10081000BF00F7003B080319F52CBF020319912C08
:10082000031C4F2C3C08C500C5173D08C4003E08FA
:10083000C300C2010310C50CC40CC30CC20CBF0B17
:10084000192CC01F262C4114092D41103F104116B0
:100850003A30840083131E2D4112C01B392C3F1CDB
:10086000442CC50CC40CC30CC20CF70A0319042D8C
:10087000442CC51B472C0310C20DC30DC40DC50D60
:10088000F7030319042D392C4117B12C41133808F3
:10089000C000C01F4D2CC517FD2CC513FD2C3B08F7
:1008A000BF00F7003708BF023808C500C517390870
:1008B000C4003A08C300C2010310C50CC40CC30C29
:1008C000C20CBF0B5B2CC01F682CC114092DC110BA
:1008D0003F10C1163E30840083131E2DC112C01B71
:1008E0007B2C3F1C862CC50CC40CC30CC20CF70A15
:1008F0000319042D862CC51B892C0310C20DC30DB2
:10090000C40DC50DF7030319042D7B2CC117B12CA1
:10091000C1133C08C000C01F8F2CC517FD2CC51388
:10092000FD2C3C08C500C5173D08C4003E08C300A7
:10093000C01F9E2CC5134115092D4111C2013F1046
:100940003A30840083131E2DC01BC72C3808C0000A
:100950003F1CB12CC50CC40CC30CC20CF70A031904
:10096000042DC21FC22CC30A031DC22CC40A031DBE
:10097000C22CC50A031DC22CC50CC40CC30CF70A3B
:100980000319042D411B462CC11B882CE62C8030FA
:10099000C506C51FCF2C092D3C08C000DC2C38082B
:1009A000C000C508031DDC2CC408031DDC2CC308D3
:1009B000031DDC2CF701FD2CC51BE62C0310C20D1A
:1009C000C30DC40DC50DF70BDC2C042DC01FEA2C84
:1009D000C517FD2CC513FD2C3B08F7003C08C500CE
:1009E0003D08C4003E08C300FD2C3708F700380856
:1009F000C5003908C4003A08C3004508F800440897
:100A0000F9004308FA003C2DF701F801F901FA0159
:100A10003C2DC201C309C409C509C209C20A031D8C
:100A2000172DC30A031D172DC40A0319C50A41183F
:100A3000252CC118672C41199D2CCC2C0008C3070C
:100A4000031C282DC40A031D282DC50A03193F14B1
:100A500084030008C407031C302DC50A03193F1482
:100A600084030008801F803AC50703183F14411A09
:100A70002C2CC11A6E2CA42C0034840183131F303B
:100A80008305193083169900A630980090308312A0
:100A9000980083161F149F141F159F1107309C0088
:100AA000FF308312A00083161F149F101F119F1187
:100AB0001F1383121F179F1783169F1783121F146C
:100AC00007308316860083129728B101A401A30181
:100AD000A201A101A801A701A601A5016A2B00306E
:100AE000F8001F08C73978049F001E30C3003C205F
:100AF0001F151F19792D1E08FA0083161E08831270
:100B0000B3001E08B400DD2B7A08A4007908A30006
:100B10007808A2007708A1000A30C3003C2024080E
:100B2000C5002308C4002208C3002108C2008F307A
:100B3000C900C230C8007530C7007D30C600FA2039
:100B40007A08A8007908A7007808A6007708A50009
:100B50002808C5002708C4002608C3002508C200CD
:100B60006630C900C800C7007F30C600FA20770889
:100B7000B3007808B4007908B5007A08B60083108D
:100B80007A08BA007908B9007808B8007708B70081
:100B9000BE01BD01BC018430BB00FC237A08AC005F
:100BA0007908AB007808AA007708A9008310280804
:100BB000BA002708B9002608B8002508B700BE010A
:100BC0008030BD000830BC008730BB00FC237A08B1
:100BD000B0007908AF007808AE007708AD0010309B
:100BE000F8001F08C73978049F000130C3003C207B
:100BF0001830F8001F08C73978049F000130C3007F
:060C00003C206E2D630094
:02400E00713F00
:00000001FF
;PIC16F877A
